:100000000C942A000C9447000C9447000C94470071
:100010000C9447000C9447000C9447000C94470044
:100020000C9447000C9447000C9447000C94470034
:100030000C9447000C9447000C9447000C94470024
:100040000C9447000C9447000C9447000C94470014
:100050000C94470011241FBECFE5D8E0DEBFCDBF12
:1000600010E0A0E6B0E0EEEAF4E002C005900D92E8
:10007000A036B107D9F720E0A0E6B0E001C01D929C
:10008000A537B207E1F70E94C1010C9455020C9408
:100090000000DC01FB018181813099F4808111969F
:1000A0009C911197892B11968C93119782818130A5
:1000B00081F4808112969C911297892B12968C93D1
:1000C00008959081909511968C911197982311968F
:1000D0009C930895442329F0FC012281622B6283C2
:1000E00008956095FC012281622362830895FC01DA
:1000F000609592816923462B42830895FC011AB8CA
:1001000010BC9AB18781892B8AB990B58481867099
:10011000892B80BD90B58581892B80BD808191819F
:10012000A281B381880F991FAA1FBB1F880F991F37
:10013000AA1FBB1F9C01AD01220F331F441F551F77
:10014000220F331F441F551F60E074E284EF90E0DC
:100150000E94F3012150310929B9832F8F7080BD8E
:100160000895FC01118610861586148673876287B0
:10017000578746878BB181608BB95F9BFECF8481A7
:10018000863159F48AB1827090E09695982F88272D
:10019000979587954CB1842B02C08CB190E02827AD
:1001A00039272F703327232BA1F58BB18E7F8BB985
:1001B00080E090E029C05F9BFECF24812631E9F4E6
:1001C000A285B385AC01440F551FA40FB51F2AB1FA
:1001D000227030E03695322F2227379527952D93C0
:1001E0003C936CB1A285B385A40FB51F2D913C91B2
:1001F0001197262B2D933C9306C0A285B385A80F9B
:10020000B91F2CB12C930196268537858217930749
:1002100090F2089541E068E086E390E00E946A0071
:1002200085E08A95F1F7000040E068E086E390E021
:100230000E946A008FE39FE10197F1F700C0000080
:100240000895CF93C82F482F407F60EF89E390E057
:100250000E9477000E940A0180E1C89FA00111243A
:1002600060EF89E390E00E9477000E940A01CF913D
:100270000895CF93C82F41E062E086E390E00E94AA
:100280006A0040E064E086E390E00E946A008C2F00
:100290000E942101CF910895CF93C82F40E066E0DE
:1002A00086E390E00E946A008C2F0E942101CF918A
:1002B0000895CF93DF93EC0103C021960E9439018A
:1002C00088818111FACFDF91CF910895CF93DF9389
:1002D0002FEF89EF90E0215080409040E1F700C07F
:1002E0000000C0E6D0E081E089838EE088831A8236
:1002F000BE0186E390E00E94490080EF8883BE0142
:1003000089E390E00E94490083E30E944C0182E36C
:100310000E944C0188E20E944C018CE00E944C013A
:1003200081E00E944C01DF91CF910895EF92FF92FE
:100330000F931F93CF93DF93CDB7DEB7EDB6FEB625
:100340002DB73EB7261B31090FB6F8943EBF0FBE3E
:100350002DBF0DB71EB70F5F1F4F4AE050E0B80129
:100360000E941502C8010E9459010FB6F894FEBE02
:100370000FBEEDBEDF91CF911F910F91FF90EF90D7
:100380000895E4E6F0E080E895E2A0E0B0E0808344
:100390009183A283B38388E187831682158286E0E6
:1003A0008483CF010E947E000E94660123E030E03A
:1003B00041E050E063E670E084E690E00E94B10026
:1003C0008091630063E090E00E9496012FEF8BE73D
:1003D00092E9215080409040E1F700C0000081E0A8
:1003E0000E944C01E3CFA1E21A2EAA1BBB1BFD0108
:1003F0000DC0AA1FBB1FEE1FFF1FA217B307E40704
:10040000F50720F0A21BB30BE40BF50B661F771F5B
:10041000881F991F1A9469F760957095809590953B
:100420009B01AC01BD01CF0108954532510520F477
:10043000423010F00C942002FB011082CB01089591
:10044000BB274A3031F4992322F4BDE2909581957F
:100450009F4F0C942C02BB27FB015527AA27880F1E
:10046000991FAA1FA41710F0A41B83955051B9F728
:10047000A05DAA3308F0A95DA193009779F7B111A7
:10048000B1931192CB010C944502DC01FC01672F62
:1004900071917723E1F7329704C07C916D9370835B
:0E04A0006291AE17BF07C8F30895F894FFCF1E
:00000001FF
